:0C10000000008831032820008F31FD2FF4
:101EC800FC3021009900903027009B000800573013
:101ED8002100950022008C010F3021008C00230086
:101EE8008C01083024008C0022008D01F030210084
:101EF8008D0023008D01F03024008D0022008E011A
:101F08000F3021008E0023008E0108008F316427D6
:101F18008F318F316B278F3120000D1A942F952F19
:101F2800A92F031022000C1E031403189C2F9F2FA7
:101F380022000C16A12F22000C122430F00057307A
:101F4800890BA42FF00BA42F000020008D1AAD2FB1
:101F5800AE2FC22F031022000C1E03140318B52F36
:101F6800B82F22000C16BA2F22000C121B30F000DA
:101F78008130890BBD2FF00BBD2F000020000D1BF9
:101F8800C62FC72FDB2F031022000C1E03140318C3
:101F9800CE2FD12F22000C16D32F22000C12123074
:101FA800F000AB30890BD62FF00BD62F00002000A5
:101FB8008D1BDF2FE02FF42F031022000C1E0314BB
:101FC8000318E72FEA2F22000C16EC2F22000C1220
:101FD8000930F000D530890BEF2FF00BEF2F000000
:101FE80020008C19F82FF92F902F0100902F88319D
:081FF800032820008F318A2F1D
:00000001FF
