:0C10000000008831032820008F31FD2FF4
:101F6000FC3021009900903027009B00080057307A
:101F70002100950022008C010F3021008C002300ED
:101F80008C01083024008C0022008D01F0302100EB
:101F90008D0023008D01F03024008D0022008E0181
:101FA0000F3021008E0023008E0108008F31B027F2
:101FB0008F318F31B7278F31031022008C1E03140D
:101FC0000318E32FE62F22008C16E82F22008C1234
:101FD0000730F1001730F0006A30890BED2FF00B5D
:101FE000ED2FF10BED2F003220008C19F82FF92F77
:101FF000DC2F0100DC2F8831032820008F31D62F01
:00000001FF
