:0C10000000008831032820008F31FD2FF4
:101EA600FC3021009900903027009B000800573035
:101EB6002100950022008C010F3021008C002300A8
:101EC6008C01083024008C0022008D01F0302100A6
:101ED6008D0023008D01F03024008D0022008E013C
:101EE6000F3021008E0023008E0108008F3153270A
:101EF6008F318F315A278F3120000D1A832F842F6F
:101F0600F42F22000E160730F1001730F0006A3069
:101F1600890B8B2FF00B8B2FF10B8B2F00322200AE
:101F26008E160730F1001730F0006A30890B992FB2
:101F3600F00B992FF10B992F003222000E17073064
:101F4600F1001730F0006A30890BA72FF00BA72F8E
:101F5600F10BA72F003222008E170730F100173041
:101F6600F0006A30890BB52FF00BB52FF10BB52FAA
:101F7600003222000E120730F1001730F0006A30EE
:101F8600890BC32FF00BC32FF10BC32F0032220096
:101F96008E120730F1001730F0006A30890BD12F0E
:101FA600F00BD12FF10BD12F003222000E13073088
:101FB600F1001730F0006A30890BDF2FF00BDF2FAE
:101FC600F10BDF2F003222008E130730F10017309D
:101FD600F0006A30890BED2FF00BED2FF10BED2F92
:101FE600003220008C19F82FF92F7F2F01007F2F48
:0A1FF6008831032820008F31792F75
:00000001FF
